:0300000002015D9D
:0C015D00787FE4F6D8FD758107020003EE
:1000D600101F10000000000004FC040404040C00BF
:1000E6000708101010080700F00804040408F000C0
:1000F600101E110000131C100000E01C7080000090
:10010600101F11111710080004FC0404C404180081
:10013100E4FEFDED25E0FDEF54012DFDEFC313FFBE
:060141000EBE08EF8D80E8
:010147002295
:030169008FA02242
:10011600AB07AA067C007DFF1200818D80AE02AF80
:0B012600037C007DFF1200818FA022EF
:03016C00DFFE2291
:10014800AE07AF061EEF600C7FF812016C7FF81245
:05015800016C80EE22A5
:10000300E4F5A0F58030910479018002E4F93090A1
:10001300047B018002E4FB3091FD2090FA7F64129F
:10002300016C2091F27F32120148E4FCECC394048A
:1000330050E5E4FA75F010ECA42AF582E435F0F506
:1000430083E58224D6F582E5833400F583E493FFC8
:1000530012013175F010ECA42AF582E435F0F58332
:10006300E58224DEF582E5833400F583E493FF1211
:0E00730001697F021201480ABA08B90C80AE7A
:10008100BC000BBE0029EF8DF084FFADF022E4CC63
:10009100F875F008EF2FFFEE33FEEC33FCEE9DEC2C
:1000A100984005FCEE9DFE0FD5F0E9E4CEFD22ED72
:1000B100F8F5F0EE8420D21CFEADF075F008EF2FBC
:1000C100FFED33FD4007985006D5F0F222C398FDAD
:0500D1000FD5F0EA224A
:00000001FF
