:030000000200D12A
:0C00D100787FE4F6D8FD75810702005826
:1000A100AB07AA067C007DFF1200038D80AE02AF74
:0B00B100037C007DFF1200038FA022E3
:0300DD00DFFE2221
:1000BC00AE07AF061EEF600C7FF81200DD7FF81262
:0500CC0000DD80EE22C2
:100058007D017C00E4F5A0F5807B017A00D3EB9468
:1000680080EA940050108B80AF051200BCEB25E0AD
:10007800FBEA33FA80E7E4F580FA7B80D3EB94015E
:10008800EA9400400F8BA0AF051200BCEA13FAEB0C
:0900980013FB80E8E4F5A080C030
:10000300BC000BBE0029EF8DF084FFADF022E4CCE1
:10001300F875F008EF2FFFEE33FEEC33FCEE9DECAA
:10002300984005FCEE9DFE0FD5F0E9E4CEFD22EDF0
:10003300F8F5F0EE8420D21CFEADF075F008EF2F3A
:10004300FFED33FD4007985006D5F0F222C398FD2B
:050053000FD5F0EA22C8
:00000001FF
