:0300000002018D6D
:0C018D00787FE4F6D8FD758107020003BE
:10008100000001010101000000F804040404F8006B
:100091000000000718204000000000E018040200E2
:1000A1000000000000000000808080808080FF80D0
:1000B1000000000000000000020404020204040227
:1000C1000000000000000000808080808080FF80B0
:1000D100004020180700000000020418E0000000A2
:1000E100000001010101000000F804040404F8000B
:10016100E4FEFDED25E0FDEF54012DFDEFC313FF8E
:060171000EBE08EF8D80B8
:010177002265
:030199008FA02212
:10014600AB07AA067C007DFF1200F18D80AE02AFE0
:0B015600037C007DFF1200F18FA0224F
:03019C00DFFE2261
:10017800AE07AF061EEF600C7FF812019C7FF812E5
:05018800019C80EE2245
:10000300E4F5A0F58030910479018002E4F93090A1
:10001300047B018002E4FB3091FD2090FA7F64129F
:10002300019C2091F27F1E120178E4FCECC394073B
:1000330050E5E4FA75F010ECA42AF582E435F0F506
:1000430083E5822481F582E5833400F583E493FF1D
:1000530012016175F010ECA42AF582E435F0F58302
:10006300E5822489F582E5833400F583E493FF1266
:0E00730001997F021201780ABA08B90C80AE1A
:1000F100BC000BBE0029EF8DF084FFADF022E4CCF3
:10010100F875F008EF2FFFEE33FEEC33FCEE9DECBB
:10011100984005FCEE9DFE0FD5F0E9E4CEFD22ED01
:10012100F8F5F0EE8420D21CFEADF075F008EF2F4B
:10013100FFED33FD4007985006D5F0F222C398FD3C
:050141000FD5F0EA22D9
:00000001FF
